{
  "contractName": "NFTResolver",
  "abi": [
    {
      "inputs": [
        {
          "internalType": "address",
          "name": "contract_add",
          "type": "address"
        }
      ],
      "name": "checkUpkeep",
      "outputs": [
        {
          "internalType": "bool",
          "name": "canExec",
          "type": "bool"
        },
        {
          "internalType": "bytes",
          "name": "execPayload",
          "type": "bytes"
        }
      ],
      "stateMutability": "view",
      "type": "function",
      "constant": true
    }
  ],
  "bytecode": "0x608060405234801561000f575f80fd5b506109938061001d5f395ff3fe608060405234801561000f575f80fd5b5060043610610029575f3560e01c806366ca2f281461002d575b5f80fd5b6100476004803603810190610042919061058b565b61005e565b60405161005592919061065a565b60405180910390f35b5f60605f8373ffffffffffffffffffffffffffffffffffffffff16637ee454cb6040518163ffffffff1660e01b81526004015f60405180830381865afa1580156100aa573d5f803e3d5ffd5b505050506040513d5f823e3d601f19601f820116820180604052508101906100d291906107fb565b90505f5b8151811015610518575f5b8573ffffffffffffffffffffffffffffffffffffffff1663f5a651208484815181106101105761010f610842565b5b60200260200101516040518263ffffffff1660e01b8152600401610134919061087e565b602060405180830381865afa15801561014f573d5f803e3d5ffd5b505050506040513d601f19601f820116820180604052508101906101739190610897565b81101561050457428673ffffffffffffffffffffffffffffffffffffffff16637fc5a60f8585815181106101aa576101a9610842565b5b60200260200101518973ffffffffffffffffffffffffffffffffffffffff16635ccdfa5e8888815181106101e1576101e0610842565b5b6020026020010151876040518363ffffffff1660e01b81526004016102079291906108c2565b602060405180830381865afa158015610222573d5f803e3d5ffd5b505050506040513d601f19601f820116820180604052508101906102469190610897565b6040518363ffffffff1660e01b81526004016102639291906108c2565b602060405180830381865afa15801561027e573d5f803e3d5ffd5b505050506040513d601f19601f820116820180604052508101906102a29190610897565b1080156103d5575060028673ffffffffffffffffffffffffffffffffffffffff1663a745da658585815181106102db576102da610842565b5b60200260200101518973ffffffffffffffffffffffffffffffffffffffff16635ccdfa5e88888151811061031257610311610842565b5b6020026020010151876040518363ffffffff1660e01b81526004016103389291906108c2565b602060405180830381865afa158015610353573d5f803e3d5ffd5b505050506040513d601f19601f820116820180604052508101906103779190610897565b6040518363ffffffff1660e01b81526004016103949291906108c2565b602060405180830381865afa1580156103af573d5f803e3d5ffd5b505050506040513d601f19601f820116820180604052508101906103d39190610897565b145b156104f1576342966c6860e01b8673ffffffffffffffffffffffffffffffffffffffff16635ccdfa5e85858151811061041157610410610842565b5b6020026020010151846040518363ffffffff1660e01b81526004016104379291906108c2565b602060405180830381865afa158015610452573d5f803e3d5ffd5b505050506040513d601f19601f820116820180604052508101906104769190610897565b604051602401610486919061087e565b604051602081830303815290604052907bffffffffffffffffffffffffffffffffffffffffffffffffffffffff19166020820180517bffffffffffffffffffffffffffffffffffffffffffffffffffffffff838183161783525050505093506001945050505061051b565b80806104fc90610916565b9150506100e1565b50808061051090610916565b9150506100d6565b50505b915091565b5f604051905090565b5f80fd5b5f80fd5b5f73ffffffffffffffffffffffffffffffffffffffff82169050919050565b5f61055a82610531565b9050919050565b61056a81610550565b8114610574575f80fd5b50565b5f8135905061058581610561565b92915050565b5f602082840312156105a05761059f610529565b5b5f6105ad84828501610577565b91505092915050565b5f8115159050919050565b6105ca816105b6565b82525050565b5f81519050919050565b5f82825260208201905092915050565b5f5b838110156106075780820151818401526020810190506105ec565b5f8484015250505050565b5f601f19601f8301169050919050565b5f61062c826105d0565b61063681856105da565b93506106468185602086016105ea565b61064f81610612565b840191505092915050565b5f60408201905061066d5f8301856105c1565b818103602083015261067f8184610622565b90509392505050565b5f80fd5b7f4e487b71000000000000000000000000000000000000000000000000000000005f52604160045260245ffd5b6106c282610612565b810181811067ffffffffffffffff821117156106e1576106e061068c565b5b80604052505050565b5f6106f3610520565b90506106ff82826106b9565b919050565b5f67ffffffffffffffff82111561071e5761071d61068c565b5b602082029050602081019050919050565b5f80fd5b5f819050919050565b61074581610733565b811461074f575f80fd5b50565b5f815190506107608161073c565b92915050565b5f61077861077384610704565b6106ea565b9050808382526020820190506020840283018581111561079b5761079a61072f565b5b835b818110156107c457806107b08882610752565b84526020840193505060208101905061079d565b5050509392505050565b5f82601f8301126107e2576107e1610688565b5b81516107f2848260208601610766565b91505092915050565b5f602082840312156108105761080f610529565b5b5f82015167ffffffffffffffff81111561082d5761082c61052d565b5b610839848285016107ce565b91505092915050565b7f4e487b71000000000000000000000000000000000000000000000000000000005f52603260045260245ffd5b61087881610733565b82525050565b5f6020820190506108915f83018461086f565b92915050565b5f602082840312156108ac576108ab610529565b5b5f6108b984828501610752565b91505092915050565b5f6040820190506108d55f83018561086f565b6108e2602083018461086f565b9392505050565b7f4e487b71000000000000000000000000000000000000000000000000000000005f52601160045260245ffd5b5f61092082610733565b91507fffffffffffffffffffffffffffffffffffffffffffffffffffffffffffffffff8203610952576109516108e9565b5b60018201905091905056fea264697066735822122047a06131954d4af67acf9255981405f5650e0bd5590447247fa89f607d10079864736f6c63430008150033",
  "immutableReferences": {},
  "source": "//SPDX-License-Identifier: GPL-3.0\npragma solidity ^0.8.0;\n\ninterface INFTWarranty {\n    function getSellerNFTs(uint256 sellerId)\n        external\n        view\n        returns (uint256[] memory);\n\n    function getSellers() external view returns (uint256[] memory);\n\n    function getExpiry(uint256 sellerId, uint256 tokenId)\n        external\n        view\n        returns (uint256 expiry);\n\n    function getCreation(uint256 sellerId, uint256 tokenId)\n        external\n        view\n        returns (uint256 creation);\n\n    function getStatus(uint256 sellerId, uint256 tokenId)\n        external\n        view\n        returns (uint256 stat);\n        function getSellerNFT(uint256 sellerId,uint256 Index)external view returns(uint256);\n        function getSellerNFTSize(uint256 sellerId)external view returns(uint256);\n\n    function burn(uint256 tokenId) external;\n}\n\ncontract NFTResolver {\n    function checkUpkeep(address contract_add)\n        external\n        view\n        returns (bool canExec, bytes memory execPayload)\n    // returns(uint256 []  memory arr)\n    {\n        uint256[] memory ans = INFTWarranty(contract_add).getSellers();\n        for (uint256 i = 0; i < ans.length; i++) {\n\n            for (uint256 j = 0; j <  INFTWarranty(contract_add).getSellerNFTSize(ans[i]); j++) {\n                //uint256 creationTime =  INFTWarranty(contract_add).getCreation(ans[i],nfts[i]);\n                if (\n                    (INFTWarranty(contract_add).getExpiry(ans[i],INFTWarranty(contract_add).getSellerNFT(ans[i],j) ) <\n                        block.timestamp) &&\n                    (INFTWarranty(contract_add).getStatus(ans[i], INFTWarranty(contract_add).getSellerNFT(ans[i],j)) == 2)\n                ) {\n                    execPayload = abi.encodeWithSelector(\n                        INFTWarranty.burn.selector,\n                        uint256(INFTWarranty(contract_add).getSellerNFT(ans[i],j))\n                    );\n                    return (true, execPayload);\n                }\n                // if (\n                //     INFTWarranty(contract_add).getExpiry(ans[i], INFTWarranty(contract_add).getSellerNFT(ans[i],j)) >\n                //     block.timestamp ||\n                //     INFTWarranty(contract_add).getStatus(ans[i], INFTWarranty(contract_add).getSellerNFT(ans[i],j)) ==\n                //     0 ||\n                //     INFTWarranty(contract_add).getStatus(ans[i], INFTWarranty(contract_add).getSellerNFT(ans[i],j)) ==\n                //     1 ||\n                //     INFTWarranty(contract_add).getStatus(ans[i], INFTWarranty(contract_add).getSellerNFT(ans[i],j)) == 3\n                // ) {\n                //     return (false, bytes(\"Session is ongoing\"));\n                // }\n            }\n        }\n    }\n}\n",
  "sourcePath": "/Users/samridhsingh/Desktop/codes/Nimbus-Securities/contracts/NFTResolver.sol",
  "compiler": {
    "name": "solc",
    "version": "0.8.21+commit.d9974bed.Emscripten.clang"
  },
  "schemaVersion": "3.4.15",
  "updatedAt": "2023-10-22T11:39:23.309Z",
  "networkType": "ethereum",
  "devdoc": {
    "kind": "dev",
    "methods": {},
    "version": 1
  },
  "userdoc": {
    "kind": "user",
    "methods": {},
    "version": 1
  }
}