{
  "contractName": "NFTWarranty",
  "abi": [
    {
      "inputs": [],
      "stateMutability": "nonpayable",
      "type": "constructor"
    },
    {
      "anonymous": false,
      "inputs": [
        {
          "indexed": true,
          "internalType": "address",
          "name": "owner",
          "type": "address"
        },
        {
          "indexed": true,
          "internalType": "address",
          "name": "approved",
          "type": "address"
        },
        {
          "indexed": true,
          "internalType": "uint256",
          "name": "tokenId",
          "type": "uint256"
        }
      ],
      "name": "Approval",
      "type": "event"
    },
    {
      "anonymous": false,
      "inputs": [
        {
          "indexed": true,
          "internalType": "address",
          "name": "owner",
          "type": "address"
        },
        {
          "indexed": true,
          "internalType": "address",
          "name": "operator",
          "type": "address"
        },
        {
          "indexed": false,
          "internalType": "bool",
          "name": "approved",
          "type": "bool"
        }
      ],
      "name": "ApprovalForAll",
      "type": "event"
    },
    {
      "anonymous": false,
      "inputs": [
        {
          "indexed": false,
          "internalType": "uint256",
          "name": "_fromTokenId",
          "type": "uint256"
        },
        {
          "indexed": false,
          "internalType": "uint256",
          "name": "_toTokenId",
          "type": "uint256"
        }
      ],
      "name": "BatchMetadataUpdate",
      "type": "event"
    },
    {
      "anonymous": false,
      "inputs": [
        {
          "indexed": false,
          "internalType": "uint256",
          "name": "_tokenId",
          "type": "uint256"
        }
      ],
      "name": "MetadataUpdate",
      "type": "event"
    },
    {
      "anonymous": false,
      "inputs": [
        {
          "indexed": true,
          "internalType": "address",
          "name": "from",
          "type": "address"
        },
        {
          "indexed": true,
          "internalType": "address",
          "name": "to",
          "type": "address"
        },
        {
          "indexed": true,
          "internalType": "uint256",
          "name": "tokenId",
          "type": "uint256"
        }
      ],
      "name": "Transfer",
      "type": "event"
    },
    {
      "inputs": [
        {
          "internalType": "address",
          "name": "",
          "type": "address"
        }
      ],
      "name": "addressToSellerId",
      "outputs": [
        {
          "internalType": "uint256",
          "name": "",
          "type": "uint256"
        }
      ],
      "stateMutability": "view",
      "type": "function",
      "constant": true
    },
    {
      "inputs": [
        {
          "internalType": "uint256",
          "name": "",
          "type": "uint256"
        }
      ],
      "name": "allSellers",
      "outputs": [
        {
          "internalType": "uint256",
          "name": "id",
          "type": "uint256"
        },
        {
          "internalType": "uint256",
          "name": "itemCounter",
          "type": "uint256"
        },
        {
          "internalType": "address",
          "name": "owner",
          "type": "address"
        }
      ],
      "stateMutability": "view",
      "type": "function",
      "constant": true
    },
    {
      "inputs": [
        {
          "internalType": "address",
          "name": "to",
          "type": "address"
        },
        {
          "internalType": "uint256",
          "name": "tokenId",
          "type": "uint256"
        }
      ],
      "name": "approve",
      "outputs": [],
      "stateMutability": "nonpayable",
      "type": "function"
    },
    {
      "inputs": [
        {
          "internalType": "address",
          "name": "owner",
          "type": "address"
        }
      ],
      "name": "balanceOf",
      "outputs": [
        {
          "internalType": "uint256",
          "name": "",
          "type": "uint256"
        }
      ],
      "stateMutability": "view",
      "type": "function",
      "constant": true
    },
    {
      "inputs": [
        {
          "internalType": "address",
          "name": "",
          "type": "address"
        },
        {
          "internalType": "uint256",
          "name": "",
          "type": "uint256"
        }
      ],
      "name": "buyersCollection",
      "outputs": [
        {
          "internalType": "uint256",
          "name": "",
          "type": "uint256"
        }
      ],
      "stateMutability": "view",
      "type": "function",
      "constant": true
    },
    {
      "inputs": [
        {
          "internalType": "address",
          "name": "",
          "type": "address"
        }
      ],
      "name": "buyersCount",
      "outputs": [
        {
          "internalType": "uint256",
          "name": "",
          "type": "uint256"
        }
      ],
      "stateMutability": "view",
      "type": "function",
      "constant": true
    },
    {
      "inputs": [
        {
          "internalType": "uint256",
          "name": "tokenId",
          "type": "uint256"
        }
      ],
      "name": "getApproved",
      "outputs": [
        {
          "internalType": "address",
          "name": "",
          "type": "address"
        }
      ],
      "stateMutability": "view",
      "type": "function",
      "constant": true
    },
    {
      "inputs": [
        {
          "internalType": "address",
          "name": "owner",
          "type": "address"
        },
        {
          "internalType": "address",
          "name": "operator",
          "type": "address"
        }
      ],
      "name": "isApprovedForAll",
      "outputs": [
        {
          "internalType": "bool",
          "name": "",
          "type": "bool"
        }
      ],
      "stateMutability": "view",
      "type": "function",
      "constant": true
    },
    {
      "inputs": [],
      "name": "name",
      "outputs": [
        {
          "internalType": "string",
          "name": "",
          "type": "string"
        }
      ],
      "stateMutability": "view",
      "type": "function",
      "constant": true
    },
    {
      "inputs": [
        {
          "internalType": "uint256",
          "name": "tokenId",
          "type": "uint256"
        }
      ],
      "name": "ownerOf",
      "outputs": [
        {
          "internalType": "address",
          "name": "",
          "type": "address"
        }
      ],
      "stateMutability": "view",
      "type": "function",
      "constant": true
    },
    {
      "inputs": [
        {
          "internalType": "address",
          "name": "from",
          "type": "address"
        },
        {
          "internalType": "address",
          "name": "to",
          "type": "address"
        },
        {
          "internalType": "uint256",
          "name": "tokenId",
          "type": "uint256"
        }
      ],
      "name": "safeTransferFrom",
      "outputs": [],
      "stateMutability": "nonpayable",
      "type": "function"
    },
    {
      "inputs": [
        {
          "internalType": "address",
          "name": "from",
          "type": "address"
        },
        {
          "internalType": "address",
          "name": "to",
          "type": "address"
        },
        {
          "internalType": "uint256",
          "name": "tokenId",
          "type": "uint256"
        },
        {
          "internalType": "bytes",
          "name": "data",
          "type": "bytes"
        }
      ],
      "name": "safeTransferFrom",
      "outputs": [],
      "stateMutability": "nonpayable",
      "type": "function"
    },
    {
      "inputs": [
        {
          "internalType": "uint256",
          "name": "",
          "type": "uint256"
        },
        {
          "internalType": "uint256",
          "name": "",
          "type": "uint256"
        }
      ],
      "name": "sellerWarrantyDetails",
      "outputs": [
        {
          "internalType": "uint256",
          "name": "tokenId",
          "type": "uint256"
        },
        {
          "internalType": "bytes32",
          "name": "verifyHash",
          "type": "bytes32"
        },
        {
          "internalType": "uint256",
          "name": "creationTime",
          "type": "uint256"
        },
        {
          "internalType": "string",
          "name": "productId",
          "type": "string"
        },
        {
          "internalType": "string",
          "name": "imageURI",
          "type": "string"
        },
        {
          "internalType": "uint256",
          "name": "expiry",
          "type": "uint256"
        },
        {
          "internalType": "enum NFTWarranty.NFTStatus",
          "name": "status",
          "type": "uint8"
        }
      ],
      "stateMutability": "view",
      "type": "function",
      "constant": true
    },
    {
      "inputs": [
        {
          "internalType": "address",
          "name": "operator",
          "type": "address"
        },
        {
          "internalType": "bool",
          "name": "approved",
          "type": "bool"
        }
      ],
      "name": "setApprovalForAll",
      "outputs": [],
      "stateMutability": "nonpayable",
      "type": "function"
    },
    {
      "inputs": [
        {
          "internalType": "bytes4",
          "name": "interfaceId",
          "type": "bytes4"
        }
      ],
      "name": "supportsInterface",
      "outputs": [
        {
          "internalType": "bool",
          "name": "",
          "type": "bool"
        }
      ],
      "stateMutability": "view",
      "type": "function",
      "constant": true
    },
    {
      "inputs": [],
      "name": "symbol",
      "outputs": [
        {
          "internalType": "string",
          "name": "",
          "type": "string"
        }
      ],
      "stateMutability": "view",
      "type": "function",
      "constant": true
    },
    {
      "inputs": [
        {
          "internalType": "uint256",
          "name": "tokenId",
          "type": "uint256"
        }
      ],
      "name": "tokenURI",
      "outputs": [
        {
          "internalType": "string",
          "name": "",
          "type": "string"
        }
      ],
      "stateMutability": "view",
      "type": "function",
      "constant": true
    },
    {
      "inputs": [
        {
          "internalType": "uint256",
          "name": "",
          "type": "uint256"
        },
        {
          "internalType": "uint256",
          "name": "",
          "type": "uint256"
        }
      ],
      "name": "tokenURIList",
      "outputs": [
        {
          "internalType": "string",
          "name": "",
          "type": "string"
        }
      ],
      "stateMutability": "view",
      "type": "function",
      "constant": true
    },
    {
      "inputs": [
        {
          "internalType": "uint256",
          "name": "",
          "type": "uint256"
        }
      ],
      "name": "totalSellers",
      "outputs": [
        {
          "internalType": "uint256",
          "name": "",
          "type": "uint256"
        }
      ],
      "stateMutability": "view",
      "type": "function",
      "constant": true
    },
    {
      "inputs": [
        {
          "internalType": "address",
          "name": "from",
          "type": "address"
        },
        {
          "internalType": "address",
          "name": "to",
          "type": "address"
        },
        {
          "internalType": "uint256",
          "name": "tokenId",
          "type": "uint256"
        }
      ],
      "name": "transferFrom",
      "outputs": [],
      "stateMutability": "nonpayable",
      "type": "function"
    },
    {
      "inputs": [
        {
          "internalType": "string",
          "name": "productId",
          "type": "string"
        },
        {
          "internalType": "uint256",
          "name": "sellerId",
          "type": "uint256"
        },
        {
          "internalType": "uint256",
          "name": "tokenId",
          "type": "uint256"
        }
      ],
      "name": "verifyOwnership",
      "outputs": [
        {
          "internalType": "bool",
          "name": "",
          "type": "bool"
        }
      ],
      "stateMutability": "nonpayable",
      "type": "function"
    },
    {
      "inputs": [
        {
          "internalType": "uint256",
          "name": "sellerId",
          "type": "uint256"
        },
        {
          "internalType": "uint256",
          "name": "tokenId",
          "type": "uint256"
        }
      ],
      "name": "claimNMint",
      "outputs": [],
      "stateMutability": "nonpayable",
      "type": "function"
    },
    {
      "inputs": [
        {
          "internalType": "uint256",
          "name": "sellerId",
          "type": "uint256"
        }
      ],
      "name": "createSeller",
      "outputs": [],
      "stateMutability": "nonpayable",
      "type": "function"
    },
    {
      "inputs": [
        {
          "internalType": "string",
          "name": "tokenURI",
          "type": "string"
        },
        {
          "internalType": "uint256",
          "name": "sellerId",
          "type": "uint256"
        },
        {
          "internalType": "string",
          "name": "productId",
          "type": "string"
        },
        {
          "internalType": "address",
          "name": "customer",
          "type": "address"
        },
        {
          "internalType": "uint256",
          "name": "expiry",
          "type": "uint256"
        },
        {
          "internalType": "string",
          "name": "imageURI",
          "type": "string"
        }
      ],
      "name": "createNFT",
      "outputs": [],
      "stateMutability": "nonpayable",
      "type": "function"
    },
    {
      "inputs": [
        {
          "internalType": "address",
          "name": "to",
          "type": "address"
        },
        {
          "internalType": "uint256",
          "name": "tokenId",
          "type": "uint256"
        },
        {
          "internalType": "uint256",
          "name": "sellerId",
          "type": "uint256"
        }
      ],
      "name": "resell",
      "outputs": [],
      "stateMutability": "nonpayable",
      "type": "function"
    },
    {
      "inputs": [
        {
          "internalType": "uint256",
          "name": "tokenId",
          "type": "uint256"
        }
      ],
      "name": "burn",
      "outputs": [],
      "stateMutability": "nonpayable",
      "type": "function"
    },
    {
      "inputs": [
        {
          "internalType": "uint256",
          "name": "sellerId",
          "type": "uint256"
        }
      ],
      "name": "getSellerNFTs",
      "outputs": [
        {
          "internalType": "uint256[]",
          "name": "",
          "type": "uint256[]"
        }
      ],
      "stateMutability": "view",
      "type": "function",
      "constant": true
    },
    {
      "inputs": [],
      "name": "getSellers",
      "outputs": [
        {
          "internalType": "uint256[]",
          "name": "",
          "type": "uint256[]"
        }
      ],
      "stateMutability": "view",
      "type": "function",
      "constant": true
    },
    {
      "inputs": [
        {
          "internalType": "uint256",
          "name": "sellerId",
          "type": "uint256"
        },
        {
          "internalType": "uint256",
          "name": "tokenId",
          "type": "uint256"
        }
      ],
      "name": "getExpiry",
      "outputs": [
        {
          "internalType": "uint256",
          "name": "expiry",
          "type": "uint256"
        }
      ],
      "stateMutability": "view",
      "type": "function",
      "constant": true
    },
    {
      "inputs": [
        {
          "internalType": "uint256",
          "name": "sellerId",
          "type": "uint256"
        },
        {
          "internalType": "uint256",
          "name": "tokenId",
          "type": "uint256"
        }
      ],
      "name": "getCreation",
      "outputs": [
        {
          "internalType": "uint256",
          "name": "creation",
          "type": "uint256"
        }
      ],
      "stateMutability": "view",
      "type": "function",
      "constant": true
    },
    {
      "inputs": [
        {
          "internalType": "uint256",
          "name": "sellerId",
          "type": "uint256"
        },
        {
          "internalType": "uint256",
          "name": "tokenId",
          "type": "uint256"
        }
      ],
      "name": "getSellerWarrantyDetails",
      "outputs": [
        {
          "components": [
            {
              "internalType": "uint256",
              "name": "tokenId",
              "type": "uint256"
            },
            {
              "internalType": "bytes32",
              "name": "verifyHash",
              "type": "bytes32"
            },
            {
              "internalType": "uint256",
              "name": "creationTime",
              "type": "uint256"
            },
            {
              "internalType": "string",
              "name": "productId",
              "type": "string"
            },
            {
              "internalType": "string",
              "name": "imageURI",
              "type": "string"
            },
            {
              "internalType": "uint256",
              "name": "expiry",
              "type": "uint256"
            },
            {
              "internalType": "address[]",
              "name": "buyers",
              "type": "address[]"
            },
            {
              "internalType": "uint256[]",
              "name": "buyersDate",
              "type": "uint256[]"
            },
            {
              "internalType": "enum NFTWarranty.NFTStatus",
              "name": "status",
              "type": "uint8"
            }
          ],
          "internalType": "struct NFTWarranty.warrantyDetails",
          "name": "",
          "type": "tuple"
        }
      ],
      "stateMutability": "view",
      "type": "function",
      "constant": true
    },
    {
      "inputs": [
        {
          "internalType": "address",
          "name": "add",
          "type": "address"
        },
        {
          "internalType": "uint256",
          "name": "index",
          "type": "uint256"
        }
      ],
      "name": "getBuyersCollection",
      "outputs": [
        {
          "internalType": "uint256",
          "name": "",
          "type": "uint256"
        }
      ],
      "stateMutability": "view",
      "type": "function",
      "constant": true
    },
    {
      "inputs": [
        {
          "internalType": "uint256",
          "name": "sellerId",
          "type": "uint256"
        },
        {
          "internalType": "uint256",
          "name": "tokenId",
          "type": "uint256"
        }
      ],
      "name": "getStatus",
      "outputs": [
        {
          "internalType": "uint256",
          "name": "stat",
          "type": "uint256"
        }
      ],
      "stateMutability": "view",
      "type": "function",
      "constant": true
    },
    {
      "inputs": [
        {
          "internalType": "uint256",
          "name": "sellerId",
          "type": "uint256"
        },
        {
          "internalType": "uint256",
          "name": "Index",
          "type": "uint256"
        }
      ],
      "name": "getSellerNFT",
      "outputs": [
        {
          "internalType": "uint256",
          "name": "",
          "type": "uint256"
        }
      ],
      "stateMutability": "view",
      "type": "function",
      "constant": true
    },
    {
      "inputs": [
        {
          "internalType": "uint256",
          "name": "sellerId",
          "type": "uint256"
        }
      ],
      "name": "getSellerNFTSize",
      "outputs": [
        {
          "internalType": "uint256",
          "name": "",
          "type": "uint256"
        }
      ],
      "stateMutability": "view",
      "type": "function",
      "constant": true
    }
  ],
  "bytecode": "0x608060405234801562000010575f80fd5b506040518060400160405280601181526020017f4e4654446f636b657457617272616e74790000000000000000000000000000008152506040518060400160405280600581526020017f4e46544457000000000000000000000000000000000000000000000000000000815250815f90816200008d91906200030c565b5080600190816200009f91906200030c565b505050620003f0565b5f81519050919050565b7f4e487b71000000000000000000000000000000000000000000000000000000005f52604160045260245ffd5b7f4e487b71000000000000000000000000000000000000000000000000000000005f52602260045260245ffd5b5f60028204905060018216806200012457607f821691505b6020821081036200013a5762000139620000df565b5b50919050565b5f819050815f5260205f209050919050565b5f6020601f8301049050919050565b5f82821b905092915050565b5f600883026200019e7fffffffffffffffffffffffffffffffffffffffffffffffffffffffffffffffff8262000161565b620001aa868362000161565b95508019841693508086168417925050509392505050565b5f819050919050565b5f819050919050565b5f620001f4620001ee620001e884620001c2565b620001cb565b620001c2565b9050919050565b5f819050919050565b6200020f83620001d4565b620002276200021e82620001fb565b8484546200016d565b825550505050565b5f90565b6200023d6200022f565b6200024a81848462000204565b505050565b5b818110156200027157620002655f8262000233565b60018101905062000250565b5050565b601f821115620002c0576200028a8162000140565b620002958462000152565b81016020851015620002a5578190505b620002bd620002b48562000152565b8301826200024f565b50505b505050565b5f82821c905092915050565b5f620002e25f1984600802620002c5565b1980831691505092915050565b5f620002fc8383620002d1565b9150826002028217905092915050565b6200031782620000a8565b67ffffffffffffffff811115620003335762000332620000b2565b5b6200033f82546200010c565b6200034c82828562000275565b5f60209050601f83116001811462000382575f84156200036d578287015190505b620003798582620002ef565b865550620003e8565b601f198416620003928662000140565b5f5b82811015620003bb5784890151825560018201915060208501945060208101905062000394565b86831015620003db5784890151620003d7601f891682620002d1565b8355505b6001600288020188555050505b505050505050565b614f7a80620003fe5f395ff3fe608060405234801561000f575f80fd5b506004361061020f575f3560e01c80637f3b2cf411610123578063b88d4fde116100ab578063e985e9c51161007a578063e985e9c5146106cf578063e9b2c95e146106ff578063ed4a4a241461072f578063f5601e4b14610761578063f5a651201461077d5761020f565b8063b88d4fde14610637578063c839d38c14610653578063c87b56dd1461066f578063d963729d1461069f5761020f565b806395d89b41116100f257806395d89b4114610567578063a22cb46514610585578063a745da65146105a1578063aa8c7835146105d1578063afbd903a146106075761020f565b80637f3b2cf4146104bb5780637fc5a60f146104d75780638721f9fc146105075780639567253f146105375761020f565b80632d5052d9116101a65780636352211e116101755780636352211e146103dd578063644190b81461040d57806369ac439b1461043d57806370a082311461046d5780637ee454cb1461049d5761020f565b80632d5052d91461034557806342842e0e1461037557806342966c68146103915780635ccdfa5e146103ad5761020f565b806315f7b2e5116101e257806315f7b2e5146102ad5780631846f582146102dd5780631faea033146102f957806323b872dd146103295761020f565b806301ffc9a71461021357806306fdde0314610243578063081812fc14610261578063095ea7b314610291575b5f80fd5b61022d6004803603810190610228919061358a565b6107ad565b60405161023a91906135cf565b60405180910390f35b61024b61080d565b6040516102589190613672565b60405180910390f35b61027b600480360381019061027691906136c5565b61089c565b604051610288919061372f565b60405180910390f35b6102ab60048036038101906102a69190613772565b6108de565b005b6102c760048036038101906102c291906138dc565b6109f4565b6040516102d491906135cf565b60405180910390f35b6102f760048036038101906102f29190613948565b610aa6565b005b610313600480360381019061030e9190613948565b610c0e565b6040516103209190613c9e565b60405180910390f35b610343600480360381019061033e9190613cbe565b610eac565b005b61035f600480360381019061035a9190613772565b610f0c565b60405161036c9190613d1d565b60405180910390f35b61038f600480360381019061038a9190613cbe565b610f37565b005b6103ab60048036038101906103a691906136c5565b610f56565b005b6103c760048036038101906103c29190613948565b610fef565b6040516103d49190613d1d565b60405180910390f35b6103f760048036038101906103f291906136c5565b611027565b604051610404919061372f565b60405180910390f35b61042760048036038101906104229190613d36565b6110ab565b6040516104349190613d1d565b60405180910390f35b610457600480360381019061045291906136c5565b6110c0565b6040516104649190613dcd565b60405180910390f35b61048760048036038101906104829190613d36565b61112a565b6040516104949190613d1d565b60405180910390f35b6104a56111de565b6040516104b29190613dcd565b60405180910390f35b6104d560048036038101906104d09190613ded565b611234565b005b6104f160048036038101906104ec9190613948565b611791565b6040516104fe9190613d1d565b60405180910390f35b610521600480360381019061051c9190613d36565b6117be565b60405161052e9190613d1d565b60405180910390f35b610551600480360381019061054c91906136c5565b6117d3565b60405161055e9190613d1d565b60405180910390f35b61056f6117f3565b60405161057c9190613672565b60405180910390f35b61059f600480360381019061059a9190613ef4565b611883565b005b6105bb60048036038101906105b69190613948565b611899565b6040516105c89190613d1d565b60405180910390f35b6105eb60048036038101906105e69190613948565b611a2e565b6040516105fe9796959493929190613f50565b60405180910390f35b610621600480360381019061061c9190613948565b611b8f565b60405161062e9190613672565b60405180910390f35b610651600480360381019061064c9190614069565b611c35565b005b61066d600480360381019061066891906140e9565b611c97565b005b610689600480360381019061068491906136c5565b611e57565b6040516106969190613672565b60405180910390f35b6106b960048036038101906106b49190613948565b611f61565b6040516106c69190613d1d565b60405180910390f35b6106e960048036038101906106e49190614139565b611f8e565b6040516106f691906135cf565b60405180910390f35b61071960048036038101906107149190613772565b61201c565b6040516107269190613d1d565b60405180910390f35b610749600480360381019061074491906136c5565b61207d565b60405161075893929190614177565b60405180910390f35b61077b600480360381019061077691906136c5565b6120c2565b005b610797600480360381019061079291906136c5565b6122ac565b6040516107a49190613d1d565b60405180910390f35b5f634906490660e01b7bffffffffffffffffffffffffffffffffffffffffffffffffffffffff1916827bffffffffffffffffffffffffffffffffffffffffffffffffffffffff191614806108065750610805826122cc565b5b9050919050565b60605f805461081b906141d9565b80601f0160208091040260200160405190810160405280929190818152602001828054610847906141d9565b80156108925780601f1061086957610100808354040283529160200191610892565b820191905f5260205f20905b81548152906001019060200180831161087557829003601f168201915b5050505050905090565b5f6108a6826123ad565b60045f8381526020019081526020015f205f9054906101000a900473ffffffffffffffffffffffffffffffffffffffff169050919050565b5f6108e882611027565b90508073ffffffffffffffffffffffffffffffffffffffff168373ffffffffffffffffffffffffffffffffffffffff1603610958576040517f08c379a000000000000000000000000000000000000000000000000000000000815260040161094f90614279565b60405180910390fd5b8073ffffffffffffffffffffffffffffffffffffffff166109776123f8565b73ffffffffffffffffffffffffffffffffffffffff1614806109a657506109a5816109a06123f8565b611f8e565b5b6109e5576040517f08c379a00000000000000000000000000000000000000000000000000000000081526004016109dc90614307565b60405180910390fd5b6109ef83836123ff565b505050565b5f3384604051602001610a08929190614325565b60405160208183030381529060405280519060200120600a5f8581526020019081526020015f205f8481526020019081526020015f206001015403610a9b576001600a5f8581526020019081526020015f205f8481526020019081526020015f206008015f6101000a81548160ff02191690836003811115610a8d57610a8c613b54565b5b021790555060019050610a9f565b5f90505b9392505050565b60016003811115610aba57610ab9613b54565b5b600a5f8481526020019081526020015f205f8381526020019081526020015f206008015f9054906101000a900460ff166003811115610afc57610afb613b54565b5b14610b05575f80fd5b610b0f33826124b5565b610bbf81600b5f8581526020019081526020015f205f8481526020019081526020015f208054610b3e906141d9565b80601f0160208091040260200160405190810160405280929190818152602001828054610b6a906141d9565b8015610bb55780601f10610b8c57610100808354040283529160200191610bb5565b820191905f5260205f20905b815481529060010190602001808311610b9857829003601f168201915b50505050506126c8565b6002600a5f8481526020019081526020015f205f8381526020019081526020015f206008015f6101000a81548160ff02191690836003811115610c0557610c04613b54565b5b02179055505050565b610c16613363565b600a5f8481526020019081526020015f205f8381526020019081526020015f20604051806101200160405290815f82015481526020016001820154815260200160028201548152602001600382018054610c6f906141d9565b80601f0160208091040260200160405190810160405280929190818152602001828054610c9b906141d9565b8015610ce65780601f10610cbd57610100808354040283529160200191610ce6565b820191905f5260205f20905b815481529060010190602001808311610cc957829003601f168201915b50505050508152602001600482018054610cff906141d9565b80601f0160208091040260200160405190810160405280929190818152602001828054610d2b906141d9565b8015610d765780601f10610d4d57610100808354040283529160200191610d76565b820191905f5260205f20905b815481529060010190602001808311610d5957829003601f168201915b505050505081526020016005820154815260200160068201805480602002602001604051908101604052809291908181526020018280548015610e0b57602002820191905f5260205f20905b815f9054906101000a900473ffffffffffffffffffffffffffffffffffffffff1673ffffffffffffffffffffffffffffffffffffffff1681526020019060010190808311610dc2575b5050505050815260200160078201805480602002602001604051908101604052809291908181526020018280548015610e6157602002820191905f5260205f20905b815481526020019060010190808311610e4d575b50505050508152602001600882015f9054906101000a900460ff166003811115610e8e57610e8d613b54565b5b6003811115610ea057610e9f613b54565b5b81525050905092915050565b610ebd610eb76123f8565b8261276a565b610efc576040517f08c379a0000000000000000000000000000000000000000000000000000000008152600401610ef3906143c3565b60405180910390fd5b610f078383836127fe565b505050565b600c602052815f5260405f208181548110610f25575f80fd5b905f5260205f20015f91509150505481565b610f5183838360405180602001604052805f815250611c35565b505050565b5f620f424082610f66919061443b565b9050600a5f8281526020019081526020015f205f8381526020019081526020015f2060050154421015610f97575f80fd5b610fa082612aea565b6003600a5f8381526020019081526020015f205f8481526020019081526020015f206008015f6101000a81548160ff02191690836003811115610fe657610fe5613b54565b5b02179055505050565b5f60095f8481526020019081526020015f2060030182815481106110165761101561446b565b5b905f5260205f200154905092915050565b5f8061103283612b37565b90505f73ffffffffffffffffffffffffffffffffffffffff168173ffffffffffffffffffffffffffffffffffffffff16036110a2576040517f08c379a0000000000000000000000000000000000000000000000000000000008152600401611099906144e2565b60405180910390fd5b80915050919050565b600d602052805f5260405f205f915090505481565b606060095f8381526020019081526020015f2060030180548060200260200160405190810160405280929190818152602001828054801561111e57602002820191905f5260205f20905b81548152602001906001019080831161110a575b50505050509050919050565b5f8073ffffffffffffffffffffffffffffffffffffffff168273ffffffffffffffffffffffffffffffffffffffff1603611199576040517f08c379a000000000000000000000000000000000000000000000000000000000815260040161119090614570565b60405180910390fd5b60035f8373ffffffffffffffffffffffffffffffffffffffff1673ffffffffffffffffffffffffffffffffffffffff1681526020019081526020015f20549050919050565b6060600780548060200260200160405190810160405280929190818152602001828054801561122a57602002820191905f5260205f20905b815481526020019060010190808311611216575b5050505050905090565b60095f8681526020019081526020015f206002015f9054906101000a900473ffffffffffffffffffffffffffffffffffffffff1673ffffffffffffffffffffffffffffffffffffffff163373ffffffffffffffffffffffffffffffffffffffff16146112d5576040517f08c379a00000000000000000000000000000000000000000000000000000000081526004016112cc906145d8565b60405180910390fd5b6112dd613363565b4281604001818152505083856040516020016112fa929190614325565b6040516020818303038152906040528051906020012081602001818152505082816040015161132991906145f6565b8160a00181815250505f60095f8881526020019081526020015f2060010154620f424060095f8a81526020019081526020015f205f015461136a9190614629565b61137491906145f6565b905081600a5f8981526020019081526020015f205f8381526020019081526020015f205f820151815f0155602082015181600101556040820151816002015560608201518160030190816113c89190614807565b5060808201518160040190816113de9190614807565b5060a0820151816005015560c08201518160060190805190602001906114059291906133bf565b5060e0820151816007019080519060200190611422929190613446565b50610100820151816008015f6101000a81548160ff0219169083600381111561144e5761144d613b54565b5b021790555090505085600a5f8981526020019081526020015f205f8381526020019081526020015f2060030190816114869190614807565b5060095f8881526020019081526020015f2060030181908060018154018082558091505060019003905f5260205f20015f909190919091505580600a5f8981526020019081526020015f205f8381526020019081526020015f205f018190555084866040516020016114f9929190614325565b60405160208183030381529060405280519060200120600a5f8981526020019081526020015f205f8381526020019081526020015f206001018190555082600a5f8981526020019081526020015f205f8381526020019081526020015f2060040190816115669190614807565b50600a5f8881526020019081526020015f205f8281526020019081526020015f2060060185908060018154018082558091505060019003905f5260205f20015f9091909190916101000a81548173ffffffffffffffffffffffffffffffffffffffff021916908373ffffffffffffffffffffffffffffffffffffffff1602179055505f600a5f8981526020019081526020015f205f8381526020019081526020015f206008015f6101000a81548160ff0219169083600381111561162d5761162c613b54565b5b0217905550600a5f8881526020019081526020015f205f8281526020019081526020015f206007018260400151908060018154018082558091505060019003905f5260205f20015f909190919091505560095f8881526020019081526020015f206001015f8154809291906116a1906148d6565b9190505550600c5f8673ffffffffffffffffffffffffffffffffffffffff1673ffffffffffffffffffffffffffffffffffffffff1681526020019081526020015f2081908060018154018082558091505060019003905f5260205f20015f9091909190915055600d5f8673ffffffffffffffffffffffffffffffffffffffff1673ffffffffffffffffffffffffffffffffffffffff1681526020019081526020015f205f815480929190611754906148d6565b919050555087600b5f8981526020019081526020015f205f8381526020019081526020015f2090816117869190614807565b505050505050505050565b5f600a5f8481526020019081526020015f205f8381526020019081526020015f2060050154905092915050565b6008602052805f5260405f205f915090505481565b600781815481106117e2575f80fd5b905f5260205f20015f915090505481565b606060018054611802906141d9565b80601f016020809104026020016040519081016040528092919081815260200182805461182e906141d9565b80156118795780601f1061185057610100808354040283529160200191611879565b820191905f5260205f20905b81548152906001019060200180831161185c57829003601f168201915b5050505050905090565b61189561188e6123f8565b8383612b70565b5050565b5f8060038111156118ad576118ac613b54565b5b600a5f8581526020019081526020015f205f8481526020019081526020015f206008015f9054906101000a900460ff1660038111156118ef576118ee613b54565b5b036118fc575f9050611a28565b600160038111156119105761190f613b54565b5b600a5f8581526020019081526020015f205f8481526020019081526020015f206008015f9054906101000a900460ff16600381111561195257611951613b54565b5b036119605760019050611a28565b6002600381111561197457611973613b54565b5b600a5f8581526020019081526020015f205f8481526020019081526020015f206008015f9054906101000a900460ff1660038111156119b6576119b5613b54565b5b036119c45760029050611a28565b6003808111156119d7576119d6613b54565b5b600a5f8581526020019081526020015f205f8481526020019081526020015f206008015f9054906101000a900460ff166003811115611a1957611a18613b54565b5b03611a275760039050611a28565b5b92915050565b600a602052815f5260405f20602052805f5260405f205f9150915050805f015490806001015490806002015490806003018054611a6a906141d9565b80601f0160208091040260200160405190810160405280929190818152602001828054611a96906141d9565b8015611ae15780601f10611ab857610100808354040283529160200191611ae1565b820191905f5260205f20905b815481529060010190602001808311611ac457829003601f168201915b505050505090806004018054611af6906141d9565b80601f0160208091040260200160405190810160405280929190818152602001828054611b22906141d9565b8015611b6d5780601f10611b4457610100808354040283529160200191611b6d565b820191905f5260205f20905b815481529060010190602001808311611b5057829003601f168201915b505050505090806005015490806008015f9054906101000a900460ff16905087565b600b602052815f5260405f20602052805f5260405f205f91509150508054611bb6906141d9565b80601f0160208091040260200160405190810160405280929190818152602001828054611be2906141d9565b8015611c2d5780601f10611c0457610100808354040283529160200191611c2d565b820191905f5260205f20905b815481529060010190602001808311611c1057829003601f168201915b505050505081565b611c46611c406123f8565b8361276a565b611c85576040517f08c379a0000000000000000000000000000000000000000000000000000000008152600401611c7c906143c3565b60405180910390fd5b611c9184848484612cd7565b50505050565b3373ffffffffffffffffffffffffffffffffffffffff16611cb783611027565b73ffffffffffffffffffffffffffffffffffffffff1614611d0d576040517f08c379a0000000000000000000000000000000000000000000000000000000008152600401611d0490614967565b60405180910390fd5b82600a5f8381526020019081526020015f205f8481526020019081526020015f20600301604051602001611d42929190614a06565b60405160208183030381529060405280519060200120600a5f8381526020019081526020015f205f8481526020019081526020015f2060010181905550600a5f8281526020019081526020015f205f8381526020019081526020015f2060060183908060018154018082558091505060019003905f5260205f20015f9091909190916101000a81548173ffffffffffffffffffffffffffffffffffffffff021916908373ffffffffffffffffffffffffffffffffffffffff160217905550600a5f8281526020019081526020015f205f8381526020019081526020015f2060070142908060018154018082558091505060019003905f5260205f20015f9091909190915055611e523384846127fe565b505050565b6060611e62826123ad565b5f60065f8481526020019081526020015f208054611e7f906141d9565b80601f0160208091040260200160405190810160405280929190818152602001828054611eab906141d9565b8015611ef65780601f10611ecd57610100808354040283529160200191611ef6565b820191905f5260205f20905b815481529060010190602001808311611ed957829003601f168201915b505050505090505f611f06612d33565b90505f815103611f1a578192505050611f5c565b5f82511115611f4e578082604051602001611f36929190614a6e565b60405160208183030381529060405292505050611f5c565b611f5784612d49565b925050505b919050565b5f600a5f8481526020019081526020015f205f8381526020019081526020015f2060020154905092915050565b5f60055f8473ffffffffffffffffffffffffffffffffffffffff1673ffffffffffffffffffffffffffffffffffffffff1681526020019081526020015f205f8373ffffffffffffffffffffffffffffffffffffffff1673ffffffffffffffffffffffffffffffffffffffff1681526020019081526020015f205f9054906101000a900460ff16905092915050565b5f600c5f8473ffffffffffffffffffffffffffffffffffffffff1673ffffffffffffffffffffffffffffffffffffffff1681526020019081526020015f20828154811061206c5761206b61446b565b5b905f5260205f200154905092915050565b6009602052805f5260405f205f91509050805f015490806001015490806002015f9054906101000a900473ffffffffffffffffffffffffffffffffffffffff16905083565b5f73ffffffffffffffffffffffffffffffffffffffff1660095f8381526020019081526020015f206002015f9054906101000a900473ffffffffffffffffffffffffffffffffffffffff1673ffffffffffffffffffffffffffffffffffffffff1614612163576040517f08c379a000000000000000000000000000000000000000000000000000000000815260040161215a90614adb565b60405180910390fd5b61216b613491565b81815f01818152505033816040019073ffffffffffffffffffffffffffffffffffffffff16908173ffffffffffffffffffffffffffffffffffffffff16815250505f8160200181815250508060095f8481526020019081526020015f205f820151815f0155602082015181600101556040820151816002015f6101000a81548173ffffffffffffffffffffffffffffffffffffffff021916908373ffffffffffffffffffffffffffffffffffffffff160217905550606082015181600301908051906020019061223c929190613446565b50905050600782908060018154018082558091505060019003905f5260205f20015f90919091909150558160085f3373ffffffffffffffffffffffffffffffffffffffff1673ffffffffffffffffffffffffffffffffffffffff1681526020019081526020015f20819055505050565b5f60095f8381526020019081526020015f20600301805490509050919050565b5f7f80ac58cd000000000000000000000000000000000000000000000000000000007bffffffffffffffffffffffffffffffffffffffffffffffffffffffff1916827bffffffffffffffffffffffffffffffffffffffffffffffffffffffff1916148061239657507f5b5e139f000000000000000000000000000000000000000000000000000000007bffffffffffffffffffffffffffffffffffffffffffffffffffffffff1916827bffffffffffffffffffffffffffffffffffffffffffffffffffffffff1916145b806123a657506123a582612dae565b5b9050919050565b6123b681612e17565b6123f5576040517f08c379a00000000000000000000000000000000000000000000000000000000081526004016123ec906144e2565b60405180910390fd5b50565b5f33905090565b8160045f8381526020019081526020015f205f6101000a81548173ffffffffffffffffffffffffffffffffffffffff021916908373ffffffffffffffffffffffffffffffffffffffff160217905550808273ffffffffffffffffffffffffffffffffffffffff1661246f83611027565b73ffffffffffffffffffffffffffffffffffffffff167f8c5be1e5ebec7d5bd14f71427d1e84f3dd0314c0f7b2291e5b200ac8c7c3b92560405160405180910390a45050565b5f73ffffffffffffffffffffffffffffffffffffffff168273ffffffffffffffffffffffffffffffffffffffff1603612523576040517f08c379a000000000000000000000000000000000000000000000000000000000815260040161251a90614b43565b60405180910390fd5b61252c81612e17565b1561256c576040517f08c379a000000000000000000000000000000000000000000000000000000000815260040161256390614bab565b60405180910390fd5b6125795f83836001612e57565b61258281612e17565b156125c2576040517f08c379a00000000000000000000000000000000000000000000000000000000081526004016125b990614bab565b60405180910390fd5b600160035f8473ffffffffffffffffffffffffffffffffffffffff1673ffffffffffffffffffffffffffffffffffffffff1681526020019081526020015f205f82825401925050819055508160025f8381526020019081526020015f205f6101000a81548173ffffffffffffffffffffffffffffffffffffffff021916908373ffffffffffffffffffffffffffffffffffffffff160217905550808273ffffffffffffffffffffffffffffffffffffffff165f73ffffffffffffffffffffffffffffffffffffffff167fddf252ad1be2c89b69c2b068fc378daa952ba7f163c4a11628f55a4df523b3ef60405160405180910390a46126c45f83836001612e5d565b5050565b6126d182612e17565b612710576040517f08c379a000000000000000000000000000000000000000000000000000000000815260040161270790614c39565b60405180910390fd5b8060065f8481526020019081526020015f20908161272e9190614807565b507ff8e1a15aba9398e019f0b49df1a4fde98ee17ae345cb5f6b5e2c27f5033e8ce78260405161275e9190613d1d565b60405180910390a15050565b5f8061277583611027565b90508073ffffffffffffffffffffffffffffffffffffffff168473ffffffffffffffffffffffffffffffffffffffff1614806127b757506127b68185611f8e565b5b806127f557508373ffffffffffffffffffffffffffffffffffffffff166127dd8461089c565b73ffffffffffffffffffffffffffffffffffffffff16145b91505092915050565b8273ffffffffffffffffffffffffffffffffffffffff1661281e82611027565b73ffffffffffffffffffffffffffffffffffffffff1614612874576040517f08c379a000000000000000000000000000000000000000000000000000000000815260040161286b90614cc7565b60405180910390fd5b5f73ffffffffffffffffffffffffffffffffffffffff168273ffffffffffffffffffffffffffffffffffffffff16036128e2576040517f08c379a00000000000000000000000000000000000000000000000000000000081526004016128d990614d55565b60405180910390fd5b6128ef8383836001612e57565b8273ffffffffffffffffffffffffffffffffffffffff1661290f82611027565b73ffffffffffffffffffffffffffffffffffffffff1614612965576040517f08c379a000000000000000000000000000000000000000000000000000000000815260040161295c90614cc7565b60405180910390fd5b60045f8281526020019081526020015f205f6101000a81549073ffffffffffffffffffffffffffffffffffffffff0219169055600160035f8573ffffffffffffffffffffffffffffffffffffffff1673ffffffffffffffffffffffffffffffffffffffff1681526020019081526020015f205f8282540392505081905550600160035f8473ffffffffffffffffffffffffffffffffffffffff1673ffffffffffffffffffffffffffffffffffffffff1681526020019081526020015f205f82825401925050819055508160025f8381526020019081526020015f205f6101000a81548173ffffffffffffffffffffffffffffffffffffffff021916908373ffffffffffffffffffffffffffffffffffffffff160217905550808273ffffffffffffffffffffffffffffffffffffffff168473ffffffffffffffffffffffffffffffffffffffff167fddf252ad1be2c89b69c2b068fc378daa952ba7f163c4a11628f55a4df523b3ef60405160405180910390a4612ae58383836001612e5d565b505050565b612af381612e63565b5f60065f8381526020019081526020015f208054612b10906141d9565b905014612b345760065f8281526020019081526020015f205f612b3391906134cc565b5b50565b5f60025f8381526020019081526020015f205f9054906101000a900473ffffffffffffffffffffffffffffffffffffffff169050919050565b8173ffffffffffffffffffffffffffffffffffffffff168373ffffffffffffffffffffffffffffffffffffffff1603612bde576040517f08c379a0000000000000000000000000000000000000000000000000000000008152600401612bd590614dbd565b60405180910390fd5b8060055f8573ffffffffffffffffffffffffffffffffffffffff1673ffffffffffffffffffffffffffffffffffffffff1681526020019081526020015f205f8473ffffffffffffffffffffffffffffffffffffffff1673ffffffffffffffffffffffffffffffffffffffff1681526020019081526020015f205f6101000a81548160ff0219169083151502179055508173ffffffffffffffffffffffffffffffffffffffff168373ffffffffffffffffffffffffffffffffffffffff167f17307eab39ab6107e8899845ad3d59bd9653f200f220920489ca2b5937696c3183604051612cca91906135cf565b60405180910390a3505050565b612ce28484846127fe565b612cee84848484612fa4565b612d2d576040517f08c379a0000000000000000000000000000000000000000000000000000000008152600401612d2490614e4b565b60405180910390fd5b50505050565b606060405180602001604052805f815250905090565b6060612d54826123ad565b5f612d5d612d33565b90505f815111612d7b5760405180602001604052805f815250612da6565b80612d8584613126565b604051602001612d96929190614a6e565b6040516020818303038152906040525b915050919050565b5f7f01ffc9a7000000000000000000000000000000000000000000000000000000007bffffffffffffffffffffffffffffffffffffffffffffffffffffffff1916827bffffffffffffffffffffffffffffffffffffffffffffffffffffffff1916149050919050565b5f8073ffffffffffffffffffffffffffffffffffffffff16612e3883612b37565b73ffffffffffffffffffffffffffffffffffffffff1614159050919050565b50505050565b50505050565b5f612e6d82611027565b9050612e7c815f846001612e57565b612e8582611027565b905060045f8381526020019081526020015f205f6101000a81549073ffffffffffffffffffffffffffffffffffffffff0219169055600160035f8373ffffffffffffffffffffffffffffffffffffffff1673ffffffffffffffffffffffffffffffffffffffff1681526020019081526020015f205f828254039250508190555060025f8381526020019081526020015f205f6101000a81549073ffffffffffffffffffffffffffffffffffffffff0219169055815f73ffffffffffffffffffffffffffffffffffffffff168273ffffffffffffffffffffffffffffffffffffffff167fddf252ad1be2c89b69c2b068fc378daa952ba7f163c4a11628f55a4df523b3ef60405160405180910390a4612fa0815f846001612e5d565b5050565b5f612fc48473ffffffffffffffffffffffffffffffffffffffff166131f0565b15613119578373ffffffffffffffffffffffffffffffffffffffff1663150b7a02612fed6123f8565b8786866040518563ffffffff1660e01b815260040161300f9493929190614ebb565b6020604051808303815f875af192505050801561304a57506040513d601f19601f820116820180604052508101906130479190614f19565b60015b6130c9573d805f8114613078576040519150601f19603f3d011682016040523d82523d5f602084013e61307d565b606091505b505f8151036130c1576040517f08c379a00000000000000000000000000000000000000000000000000000000081526004016130b890614e4b565b60405180910390fd5b805181602001fd5b63150b7a0260e01b7bffffffffffffffffffffffffffffffffffffffffffffffffffffffff1916817bffffffffffffffffffffffffffffffffffffffffffffffffffffffff19161491505061311e565b600190505b949350505050565b60605f600161313484613212565b0190505f8167ffffffffffffffff811115613152576131516137b8565b5b6040519080825280601f01601f1916602001820160405280156131845781602001600182028036833780820191505090505b5090505f82602001820190505b6001156131e5578080600190039150507f3031323334353637383961626364656600000000000000000000000000000000600a86061a8153600a85816131da576131d96143e1565b5b0494505f8503613191575b819350505050919050565b5f808273ffffffffffffffffffffffffffffffffffffffff163b119050919050565b5f805f90507a184f03e93ff9f4daa797ed6e38ed64bf6a1f010000000000000000831061326e577a184f03e93ff9f4daa797ed6e38ed64bf6a1f0100000000000000008381613264576132636143e1565b5b0492506040810190505b6d04ee2d6d415b85acef810000000083106132ab576d04ee2d6d415b85acef810000000083816132a1576132a06143e1565b5b0492506020810190505b662386f26fc1000083106132da57662386f26fc1000083816132d0576132cf6143e1565b5b0492506010810190505b6305f5e1008310613303576305f5e10083816132f9576132f86143e1565b5b0492506008810190505b612710831061332857612710838161331e5761331d6143e1565b5b0492506004810190505b6064831061334b5760648381613341576133406143e1565b5b0492506002810190505b600a831061335a576001810190505b80915050919050565b6040518061012001604052805f81526020015f80191681526020015f815260200160608152602001606081526020015f815260200160608152602001606081526020015f60038111156133b9576133b8613b54565b5b81525090565b828054828255905f5260205f20908101928215613435579160200282015b82811115613434578251825f6101000a81548173ffffffffffffffffffffffffffffffffffffffff021916908373ffffffffffffffffffffffffffffffffffffffff160217905550916020019190600101906133dd565b5b5090506134429190613509565b5090565b828054828255905f5260205f20908101928215613480579160200282015b8281111561347f578251825591602001919060010190613464565b5b50905061348d9190613509565b5090565b60405180608001604052805f81526020015f81526020015f73ffffffffffffffffffffffffffffffffffffffff168152602001606081525090565b5080546134d8906141d9565b5f825580601f106134e95750613506565b601f0160209004905f5260205f20908101906135059190613509565b5b50565b5b80821115613520575f815f90555060010161350a565b5090565b5f604051905090565b5f80fd5b5f80fd5b5f7fffffffff0000000000000000000000000000000000000000000000000000000082169050919050565b61356981613535565b8114613573575f80fd5b50565b5f8135905061358481613560565b92915050565b5f6020828403121561359f5761359e61352d565b5b5f6135ac84828501613576565b91505092915050565b5f8115159050919050565b6135c9816135b5565b82525050565b5f6020820190506135e25f8301846135c0565b92915050565b5f81519050919050565b5f82825260208201905092915050565b5f5b8381101561361f578082015181840152602081019050613604565b5f8484015250505050565b5f601f19601f8301169050919050565b5f613644826135e8565b61364e81856135f2565b935061365e818560208601613602565b6136678161362a565b840191505092915050565b5f6020820190508181035f83015261368a818461363a565b905092915050565b5f819050919050565b6136a481613692565b81146136ae575f80fd5b50565b5f813590506136bf8161369b565b92915050565b5f602082840312156136da576136d961352d565b5b5f6136e7848285016136b1565b91505092915050565b5f73ffffffffffffffffffffffffffffffffffffffff82169050919050565b5f613719826136f0565b9050919050565b6137298161370f565b82525050565b5f6020820190506137425f830184613720565b92915050565b6137518161370f565b811461375b575f80fd5b50565b5f8135905061376c81613748565b92915050565b5f80604083850312156137885761378761352d565b5b5f6137958582860161375e565b92505060206137a6858286016136b1565b9150509250929050565b5f80fd5b5f80fd5b7f4e487b71000000000000000000000000000000000000000000000000000000005f52604160045260245ffd5b6137ee8261362a565b810181811067ffffffffffffffff8211171561380d5761380c6137b8565b5b80604052505050565b5f61381f613524565b905061382b82826137e5565b919050565b5f67ffffffffffffffff82111561384a576138496137b8565b5b6138538261362a565b9050602081019050919050565b828183375f83830152505050565b5f61388061387b84613830565b613816565b90508281526020810184848401111561389c5761389b6137b4565b5b6138a7848285613860565b509392505050565b5f82601f8301126138c3576138c26137b0565b5b81356138d384826020860161386e565b91505092915050565b5f805f606084860312156138f3576138f261352d565b5b5f84013567ffffffffffffffff8111156139105761390f613531565b5b61391c868287016138af565b935050602061392d868287016136b1565b925050604061393e868287016136b1565b9150509250925092565b5f806040838503121561395e5761395d61352d565b5b5f61396b858286016136b1565b925050602061397c858286016136b1565b9150509250929050565b61398f81613692565b82525050565b5f819050919050565b6139a781613995565b82525050565b5f82825260208201905092915050565b5f6139c7826135e8565b6139d181856139ad565b93506139e1818560208601613602565b6139ea8161362a565b840191505092915050565b5f81519050919050565b5f82825260208201905092915050565b5f819050602082019050919050565b613a278161370f565b82525050565b5f613a388383613a1e565b60208301905092915050565b5f602082019050919050565b5f613a5a826139f5565b613a6481856139ff565b9350613a6f83613a0f565b805f5b83811015613a9f578151613a868882613a2d565b9750613a9183613a44565b925050600181019050613a72565b5085935050505092915050565b5f81519050919050565b5f82825260208201905092915050565b5f819050602082019050919050565b5f613ae08383613986565b60208301905092915050565b5f602082019050919050565b5f613b0282613aac565b613b0c8185613ab6565b9350613b1783613ac6565b805f5b83811015613b47578151613b2e8882613ad5565b9750613b3983613aec565b925050600181019050613b1a565b5085935050505092915050565b7f4e487b71000000000000000000000000000000000000000000000000000000005f52602160045260245ffd5b60048110613b9257613b91613b54565b5b50565b5f819050613ba282613b81565b919050565b5f613bb182613b95565b9050919050565b613bc181613ba7565b82525050565b5f61012083015f830151613bdd5f860182613986565b506020830151613bf0602086018261399e565b506040830151613c036040860182613986565b5060608301518482036060860152613c1b82826139bd565b91505060808301518482036080860152613c3582826139bd565b91505060a0830151613c4a60a0860182613986565b5060c083015184820360c0860152613c628282613a50565b91505060e083015184820360e0860152613c7c8282613af8565b915050610100830151613c93610100860182613bb8565b508091505092915050565b5f6020820190508181035f830152613cb68184613bc7565b905092915050565b5f805f60608486031215613cd557613cd461352d565b5b5f613ce28682870161375e565b9350506020613cf38682870161375e565b9250506040613d04868287016136b1565b9150509250925092565b613d1781613692565b82525050565b5f602082019050613d305f830184613d0e565b92915050565b5f60208284031215613d4b57613d4a61352d565b5b5f613d588482850161375e565b91505092915050565b5f82825260208201905092915050565b5f613d7b82613aac565b613d858185613d61565b9350613d9083613ac6565b805f5b83811015613dc0578151613da78882613ad5565b9750613db283613aec565b925050600181019050613d93565b5085935050505092915050565b5f6020820190508181035f830152613de58184613d71565b905092915050565b5f805f805f8060c08789031215613e0757613e0661352d565b5b5f87013567ffffffffffffffff811115613e2457613e23613531565b5b613e3089828a016138af565b9650506020613e4189828a016136b1565b955050604087013567ffffffffffffffff811115613e6257613e61613531565b5b613e6e89828a016138af565b9450506060613e7f89828a0161375e565b9350506080613e9089828a016136b1565b92505060a087013567ffffffffffffffff811115613eb157613eb0613531565b5b613ebd89828a016138af565b9150509295509295509295565b613ed3816135b5565b8114613edd575f80fd5b50565b5f81359050613eee81613eca565b92915050565b5f8060408385031215613f0a57613f0961352d565b5b5f613f178582860161375e565b9250506020613f2885828601613ee0565b9150509250929050565b613f3b81613995565b82525050565b613f4a81613ba7565b82525050565b5f60e082019050613f635f83018a613d0e565b613f706020830189613f32565b613f7d6040830188613d0e565b8181036060830152613f8f818761363a565b90508181036080830152613fa3818661363a565b9050613fb260a0830185613d0e565b613fbf60c0830184613f41565b98975050505050505050565b5f67ffffffffffffffff821115613fe557613fe46137b8565b5b613fee8261362a565b9050602081019050919050565b5f61400d61400884613fcb565b613816565b905082815260208101848484011115614029576140286137b4565b5b614034848285613860565b509392505050565b5f82601f8301126140505761404f6137b0565b5b8135614060848260208601613ffb565b91505092915050565b5f805f80608085870312156140815761408061352d565b5b5f61408e8782880161375e565b945050602061409f8782880161375e565b93505060406140b0878288016136b1565b925050606085013567ffffffffffffffff8111156140d1576140d0613531565b5b6140dd8782880161403c565b91505092959194509250565b5f805f60608486031215614100576140ff61352d565b5b5f61410d8682870161375e565b935050602061411e868287016136b1565b925050604061412f868287016136b1565b9150509250925092565b5f806040838503121561414f5761414e61352d565b5b5f61415c8582860161375e565b925050602061416d8582860161375e565b9150509250929050565b5f60608201905061418a5f830186613d0e565b6141976020830185613d0e565b6141a46040830184613720565b949350505050565b7f4e487b71000000000000000000000000000000000000000000000000000000005f52602260045260245ffd5b5f60028204905060018216806141f057607f821691505b602082108103614203576142026141ac565b5b50919050565b7f4552433732313a20617070726f76616c20746f2063757272656e74206f776e655f8201527f7200000000000000000000000000000000000000000000000000000000000000602082015250565b5f6142636021836135f2565b915061426e82614209565b604082019050919050565b5f6020820190508181035f83015261429081614257565b9050919050565b7f4552433732313a20617070726f76652063616c6c6572206973206e6f7420746f5f8201527f6b656e206f776e6572206f7220617070726f76656420666f7220616c6c000000602082015250565b5f6142f1603d836135f2565b91506142fc82614297565b604082019050919050565b5f6020820190508181035f83015261431e816142e5565b9050919050565b5f6040820190506143385f830185613720565b818103602083015261434a818461363a565b90509392505050565b7f4552433732313a2063616c6c6572206973206e6f7420746f6b656e206f776e655f8201527f72206f7220617070726f76656400000000000000000000000000000000000000602082015250565b5f6143ad602d836135f2565b91506143b882614353565b604082019050919050565b5f6020820190508181035f8301526143da816143a1565b9050919050565b7f4e487b71000000000000000000000000000000000000000000000000000000005f52601260045260245ffd5b7f4e487b71000000000000000000000000000000000000000000000000000000005f52601160045260245ffd5b5f61444582613692565b915061445083613692565b9250826144605761445f6143e1565b5b828204905092915050565b7f4e487b71000000000000000000000000000000000000000000000000000000005f52603260045260245ffd5b7f4552433732313a20696e76616c696420746f6b656e20494400000000000000005f82015250565b5f6144cc6018836135f2565b91506144d782614498565b602082019050919050565b5f6020820190508181035f8301526144f9816144c0565b9050919050565b7f4552433732313a2061646472657373207a65726f206973206e6f7420612076615f8201527f6c6964206f776e65720000000000000000000000000000000000000000000000602082015250565b5f61455a6029836135f2565b915061456582614500565b604082019050919050565b5f6020820190508181035f8301526145878161454e565b9050919050565b7f4d757374206265206f776e6572000000000000000000000000000000000000005f82015250565b5f6145c2600d836135f2565b91506145cd8261458e565b602082019050919050565b5f6020820190508181035f8301526145ef816145b6565b9050919050565b5f61460082613692565b915061460b83613692565b92508282019050808211156146235761462261440e565b5b92915050565b5f61463382613692565b915061463e83613692565b925082820261464c81613692565b915082820484148315176146635761466261440e565b5b5092915050565b5f819050815f5260205f209050919050565b5f6020601f8301049050919050565b5f82821b905092915050565b5f600883026146c67fffffffffffffffffffffffffffffffffffffffffffffffffffffffffffffffff8261468b565b6146d0868361468b565b95508019841693508086168417925050509392505050565b5f819050919050565b5f61470b61470661470184613692565b6146e8565b613692565b9050919050565b5f819050919050565b614724836146f1565b61473861473082614712565b848454614697565b825550505050565b5f90565b61474c614740565b61475781848461471b565b505050565b5b8181101561477a5761476f5f82614744565b60018101905061475d565b5050565b601f8211156147bf576147908161466a565b6147998461467c565b810160208510156147a8578190505b6147bc6147b48561467c565b83018261475c565b50505b505050565b5f82821c905092915050565b5f6147df5f19846008026147c4565b1980831691505092915050565b5f6147f783836147d0565b9150826002028217905092915050565b614810826135e8565b67ffffffffffffffff811115614829576148286137b8565b5b61483382546141d9565b61483e82828561477e565b5f60209050601f83116001811461486f575f841561485d578287015190505b61486785826147ec565b8655506148ce565b601f19841661487d8661466a565b5f5b828110156148a45784890151825560018201915060208501945060208101905061487f565b868310156148c157848901516148bd601f8916826147d0565b8355505b6001600288020188555050505b505050505050565b5f6148e082613692565b91507fffffffffffffffffffffffffffffffffffffffffffffffffffffffffffffffff82036149125761491161440e565b5b600182019050919050565b7f4e6f74204f776e657200000000000000000000000000000000000000000000005f82015250565b5f6149516009836135f2565b915061495c8261491d565b602082019050919050565b5f6020820190508181035f83015261497e81614945565b9050919050565b5f8154614991816141d9565b61499b81866135f2565b9450600182165f81146149b557600181146149cb576149fd565b60ff1983168652811515602002860193506149fd565b6149d48561466a565b5f5b838110156149f5578154818901526001820191506020810190506149d6565b808801955050505b50505092915050565b5f604082019050614a195f830185613720565b8181036020830152614a2b8184614985565b90509392505050565b5f81905092915050565b5f614a48826135e8565b614a528185614a34565b9350614a62818560208601613602565b80840191505092915050565b5f614a798285614a3e565b9150614a858284614a3e565b91508190509392505050565b7f53656c6c657220416c72656164792065786973740000000000000000000000005f82015250565b5f614ac56014836135f2565b9150614ad082614a91565b602082019050919050565b5f6020820190508181035f830152614af281614ab9565b9050919050565b7f4552433732313a206d696e7420746f20746865207a65726f20616464726573735f82015250565b5f614b2d6020836135f2565b9150614b3882614af9565b602082019050919050565b5f6020820190508181035f830152614b5a81614b21565b9050919050565b7f4552433732313a20746f6b656e20616c7265616479206d696e746564000000005f82015250565b5f614b95601c836135f2565b9150614ba082614b61565b602082019050919050565b5f6020820190508181035f830152614bc281614b89565b9050919050565b7f45524337323155524953746f726167653a2055524920736574206f66206e6f6e5f8201527f6578697374656e7420746f6b656e000000000000000000000000000000000000602082015250565b5f614c23602e836135f2565b9150614c2e82614bc9565b604082019050919050565b5f6020820190508181035f830152614c5081614c17565b9050919050565b7f4552433732313a207472616e736665722066726f6d20696e636f7272656374205f8201527f6f776e6572000000000000000000000000000000000000000000000000000000602082015250565b5f614cb16025836135f2565b9150614cbc82614c57565b604082019050919050565b5f6020820190508181035f830152614cde81614ca5565b9050919050565b7f4552433732313a207472616e7366657220746f20746865207a65726f206164645f8201527f7265737300000000000000000000000000000000000000000000000000000000602082015250565b5f614d3f6024836135f2565b9150614d4a82614ce5565b604082019050919050565b5f6020820190508181035f830152614d6c81614d33565b9050919050565b7f4552433732313a20617070726f766520746f2063616c6c6572000000000000005f82015250565b5f614da76019836135f2565b9150614db282614d73565b602082019050919050565b5f6020820190508181035f830152614dd481614d9b565b9050919050565b7f4552433732313a207472616e7366657220746f206e6f6e2045524337323152655f8201527f63656976657220696d706c656d656e7465720000000000000000000000000000602082015250565b5f614e356032836135f2565b9150614e4082614ddb565b604082019050919050565b5f6020820190508181035f830152614e6281614e29565b9050919050565b5f81519050919050565b5f82825260208201905092915050565b5f614e8d82614e69565b614e978185614e73565b9350614ea7818560208601613602565b614eb08161362a565b840191505092915050565b5f608082019050614ece5f830187613720565b614edb6020830186613720565b614ee86040830185613d0e565b8181036060830152614efa8184614e83565b905095945050505050565b5f81519050614f1381613560565b92915050565b5f60208284031215614f2e57614f2d61352d565b5b5f614f3b84828501614f05565b9150509291505056fea26469706673582212207f01a3da7a93cbc53e8fe5123838605a86efc8f012df673429ee07cc0a2eedf564736f6c63430008150033",
  "immutableReferences": {},
  "source": "// SPDX-License-Identifier: GPL-3.0\npragma solidity ^0.8.17;\n\nimport \"@openzeppelin/contracts/token/ERC721/extensions/ERC721URIStorage.sol\";\nimport \"@openzeppelin/contracts/utils/Counters.sol\";\n\ncontract NFTWarranty is ERC721URIStorage {\n    //using Counters for Counters.Counter;\n    //Counters.Counter private _tokenIds;\n\n        constructor() ERC721(\"NFTDocketWarranty\", \"NFTDW\") {}\n\n     struct seller{\n        uint256 id;\n        uint256 itemCounter;\n        address owner;\n        uint256 [] allNFTs;\n        //string tokenURI;\n     \n    }\n     struct warrantyDetails{\n        uint256 tokenId;\n        bytes32 verifyHash;\n        uint256 creationTime;\n        string  productId;\n        string imageURI;\n        uint256 expiry;\n        address[]buyers;\n        uint256[]buyersDate;\n        NFTStatus status;\n    }\n    //verify ownership\n    enum NFTStatus{\n        Pending,\n        Verified,\n        Active,\n        Expired\n    }\n    \n    uint256 [] public totalSellers;\n    mapping (address=>uint256) public addressToSellerId;\n    mapping(uint256=>seller) public allSellers;\n    mapping(uint256=>mapping(uint256=>warrantyDetails)) public sellerWarrantyDetails;\n    mapping(uint256=>mapping(uint256=>string)) public tokenURIList;\n    mapping (address=>uint256[]) public buyersCollection;\n    mapping (address=>uint256) public buyersCount;\n\n    function verifyOwnership(string memory productId,uint256 sellerId,uint256 tokenId)public returns(bool){\n        //require(sellerWarrantyDetails[sellerId][tokenId].verifyHash!=bytes32(0x0),\"Item doesn't Exist\");\n        \n        if(sellerWarrantyDetails[sellerId][tokenId].verifyHash==keccak256(abi.encode(msg.sender,productId))){\n            sellerWarrantyDetails[sellerId][tokenId].status = NFTStatus.Verified;\n            return true;\n            \n        }\n        else return false;\n    }\n    function claimNMint(uint256 sellerId,uint256 tokenId)public {\n        require(sellerWarrantyDetails[sellerId][tokenId].status == NFTStatus.Verified);\n        _mint(msg.sender,tokenId);\n        _setTokenURI(tokenId,tokenURIList[sellerId][tokenId]); \n        sellerWarrantyDetails[sellerId][tokenId].status =  NFTStatus.Active;\n \n\n    }\n    function createSeller(uint256 sellerId) public{\n        require(allSellers[sellerId].owner==address(0x0),\"Seller Already exist\");\n         seller memory newSeller;\n         newSeller.id = sellerId;\n         newSeller.owner = msg.sender;\n         newSeller.itemCounter = 0;\n         allSellers[sellerId] = newSeller;\n         totalSellers.push(sellerId);\n         addressToSellerId[msg.sender] = sellerId;\n\n    }\n    function createNFT(string memory tokenURI,uint256 sellerId,string memory productId,address customer,uint256 expiry,string memory imageURI)public{\n      //require(tokenURIList[sellerId][allSellers[sellerId].itemCounter].length==0,\"\");\n\n      require(msg.sender== allSellers[sellerId].owner,\"Must be owner\");\n      warrantyDetails memory newNFT;\n\n      newNFT.creationTime = block.timestamp;\n      newNFT.verifyHash = keccak256(abi.encode(customer,productId));\n      newNFT.expiry =  newNFT.creationTime + expiry;\n        \n      uint256 Id = allSellers[sellerId].id*1000000+allSellers[sellerId].itemCounter;\n       sellerWarrantyDetails[sellerId][Id]=newNFT;\n        sellerWarrantyDetails[sellerId][Id].productId = productId;\n      allSellers[sellerId].allNFTs.push(Id);\n      sellerWarrantyDetails[sellerId][Id].tokenId = Id;\n      sellerWarrantyDetails[sellerId][Id].verifyHash = keccak256(abi.encode(customer,productId));\n      sellerWarrantyDetails[sellerId][Id].imageURI = imageURI;\n      sellerWarrantyDetails[sellerId][Id].buyers.push(customer);\n      sellerWarrantyDetails[sellerId][Id].status =  NFTStatus.Pending;\n      sellerWarrantyDetails[sellerId][Id].buyersDate.push(newNFT.creationTime);\n      allSellers[sellerId].itemCounter++;\n      buyersCollection[customer].push(Id);\n      buyersCount[customer]++;\n\n      tokenURIList[sellerId][Id]=tokenURI;\n        \n    }\n    function resell(address to,uint256 tokenId,uint256 sellerId)public{\n       require( ownerOf(tokenId)==msg.sender,\"Not Owner\");\n      sellerWarrantyDetails[sellerId][tokenId].verifyHash = keccak256(abi.encode(to, sellerWarrantyDetails[sellerId][tokenId].productId));\n      sellerWarrantyDetails[sellerId][tokenId].buyers.push(to);\n      sellerWarrantyDetails[sellerId][tokenId].buyersDate.push(block.timestamp);\n\n            _transfer(msg.sender,to,tokenId);\n    }\n\n       function burn(uint256 tokenId)external{\n        uint256 sellerId = tokenId/1000000;\n        require(block.timestamp>=sellerWarrantyDetails[sellerId][tokenId].expiry);\n        _burn(tokenId);\n        sellerWarrantyDetails[sellerId][tokenId].status =  NFTStatus.Expired;\n\n    }\n\n\n    //READ Functions\n\n    \n \n    function getSellerNFTs(uint256 sellerId) external view returns(uint256[]memory){\n        return allSellers[sellerId].allNFTs;\n    }\n\n    function getSellers() external view returns(uint256[]memory){\n        return totalSellers;\n    }\n    function getExpiry (uint256 sellerId,uint256 tokenId)external view returns (uint256 expiry){\n        return sellerWarrantyDetails[sellerId][tokenId].expiry;\n    }\n      function getCreation (uint256 sellerId,uint256 tokenId)external view returns (uint256 creation){\n        return sellerWarrantyDetails[sellerId][tokenId].creationTime;\n    }\n    function getSellerWarrantyDetails(uint256 sellerId,uint256 tokenId)public view returns(warrantyDetails memory){\n        return sellerWarrantyDetails[sellerId][tokenId] ;\n\n    }\n     function getBuyersCollection(address add,uint256 index)public view returns(uint256){\n        return buyersCollection[add][index];\n     }\n\n      function getStatus (uint256 sellerId,uint256 tokenId)external view returns (uint256 stat){\n       if (sellerWarrantyDetails[sellerId][tokenId].status == NFTStatus.Pending)\n       {\n        return 0;\n       }\n       if (sellerWarrantyDetails[sellerId][tokenId].status == NFTStatus.Verified){\n        return 1;\n       }\n        if (sellerWarrantyDetails[sellerId][tokenId].status == NFTStatus.Active){\n        return 2;\n       }\n          if (sellerWarrantyDetails[sellerId][tokenId].status == NFTStatus.Expired){\n        return 3;\n       }\n    }\n    function getSellerNFT(uint256 sellerId,uint256 Index)external view returns(uint256){\n        return allSellers[sellerId].allNFTs[Index];\n    }\n    function getSellerNFTSize(uint256 sellerId)external view returns(uint256){\n        return allSellers[sellerId].allNFTs.length;\n    }\n\n\n\n}\n ",
  "sourcePath": "/Users/samridhsingh/Desktop/codes/Nimbus-Securities/contracts/NFTWarranty.sol",
  "compiler": {
    "name": "solc",
    "version": "0.8.21+commit.d9974bed.Emscripten.clang"
  },
  "schemaVersion": "3.4.15",
  "updatedAt": "2023-10-22T11:38:58.222Z",
  "networkType": "ethereum",
  "devdoc": {
    "events": {
      "Approval(address,address,uint256)": {
        "details": "Emitted when `owner` enables `approved` to manage the `tokenId` token."
      },
      "ApprovalForAll(address,address,bool)": {
        "details": "Emitted when `owner` enables or disables (`approved`) `operator` to manage all of its assets."
      },
      "BatchMetadataUpdate(uint256,uint256)": {
        "details": "This event emits when the metadata of a range of tokens is changed. So that the third-party platforms such as NFT market could timely update the images and related attributes of the NFTs."
      },
      "MetadataUpdate(uint256)": {
        "details": "This event emits when the metadata of a token is changed. So that the third-party platforms such as NFT market could timely update the images and related attributes of the NFT."
      },
      "Transfer(address,address,uint256)": {
        "details": "Emitted when `tokenId` token is transferred from `from` to `to`."
      }
    },
    "kind": "dev",
    "methods": {
      "approve(address,uint256)": {
        "details": "See {IERC721-approve}."
      },
      "balanceOf(address)": {
        "details": "See {IERC721-balanceOf}."
      },
      "getApproved(uint256)": {
        "details": "See {IERC721-getApproved}."
      },
      "isApprovedForAll(address,address)": {
        "details": "See {IERC721-isApprovedForAll}."
      },
      "name()": {
        "details": "See {IERC721Metadata-name}."
      },
      "ownerOf(uint256)": {
        "details": "See {IERC721-ownerOf}."
      },
      "safeTransferFrom(address,address,uint256)": {
        "details": "See {IERC721-safeTransferFrom}."
      },
      "safeTransferFrom(address,address,uint256,bytes)": {
        "details": "See {IERC721-safeTransferFrom}."
      },
      "setApprovalForAll(address,bool)": {
        "details": "See {IERC721-setApprovalForAll}."
      },
      "supportsInterface(bytes4)": {
        "details": "See {IERC165-supportsInterface}"
      },
      "symbol()": {
        "details": "See {IERC721Metadata-symbol}."
      },
      "tokenURI(uint256)": {
        "details": "See {IERC721Metadata-tokenURI}."
      },
      "transferFrom(address,address,uint256)": {
        "details": "See {IERC721-transferFrom}."
      }
    },
    "version": 1
  },
  "userdoc": {
    "kind": "user",
    "methods": {},
    "version": 1
  }
}